:020000040800F2
:1000000020A300246D030008677C000865780008C1
:10001000657C0008DD15000851960008000000000E
:10002000000000000000000000000000AD02000819
:10003000551A00080000000009030008558B00084D
:100040008703000887030008870300088703000868
:100050008703000887030008870300088703000858
:10006000870300088703000887030008E1150008DC
:10007000ED150008F915000805160008111600080E
:10008000870300088703000887030008A91A0008EF
:100090008703000887030008870300088703000818
:1000A0008703000887030008870300088703000808
:1000B000118D0008870300088703000887030008E4
:1000C00087030008870300088703000887030008E8
:1000D0008703000839960008870300084596000842
:1000E000870300088703000800000000870300085A
:1000F00087030008870300088703000887030008B8
:1001000087030008A97E000887030008870300080A
:100110008703000887030008870300088703000897
:100120008703000887030008870300088703000887
:100130008703000887030008870300088703000877
:1001400000000000000000000000000000000000AF
:100150008703000887030008870300088703000857
:100160008703000887030008870300088703000847
:1001700087030008870300088703000800000000C9
:100180008703000887030008870300088703000827
:100190008703000887030008870300088703000817
:1001A0008703000887030008870300088703000807
:1001B00087030008870300088703000887030008F7
:1001C00087030008870300088703000887030008E7
:1001D00087030008870300088703000887030008D7
:1001E00087030008870300088703000887030008C7
:1001F00087030008870300088703000887030008B7
:1002000087030008870300088703000887030008A6
:100210008703000887030008870300088703000896
:100220008703000887030008870300080000000018
:100230008703000887030008000000008703000808
:100240008703000887030008870300088703000866
:100250008703000887030008870300088703000856
:100260008703000887030008870300088703000846
:1002700087030008870300088703000800000000C8
:1002800087030008870300088703000800000000B8
:100290000000000087030008DFF80CD000F0BAFD72
:1002A00000480047FDC0000820A300242C4B19681B
:1002B0000868B0E8F04F80F30988BFF36F8F4FF004
:1002C000000080F3118870470000000008480068B3
:1002D000006880F308884FF0000080F3148862B64D
:1002E00061B6BFF34F8FBFF36F8F00DF00BF00BF5A
:1002F00008ED00E0DFF80C00016841F470010160D6
:10030000704700BF88ED00E0EFF30980BFF36F8F07
:10031000134B1A681EF0100F08BF20ED108A20E959
:10032000F04F106009B44FF0500080F31188BFF314
:100330004F8FBFF36F8F0DF035FB4FF0000080F350
:10034000118809BC19680868B0E8F04F1EF0100F5A
:1003500008BFB0EC108A80F30988BFF36F8F704735
:1003600054000024EFF305807047000006488047E2
:1003700006480047FEE7FEE7FEE7FEE7FEE7FEE78A
:10038000FEE7FEE7FEE7FEE7358C0008990200086D
:100390002DE9F05F0546002092469B4688460646BA
:1003A000814640241BE0284641464746224600F04D
:1003B000FEFA53465A46C01A914110D311461846C8
:1003C000224600F0E5FA2D1A67EB01084F46224657
:1003D0000120002100F0DCFA17EB00094E41201E3D
:1003E000A4F10104DFDC484631462A464346BDE815
:1003F000F09F40EA01039B0703D009E008C9121FE0
:1004000008C0042AFAD203E011F8013B00F8013BCE
:10041000521EF9D27047D2B201E000F8012B491EFA
:10042000FBD270470022F6E710B513460A46044691
:100430001946FFF7F0FF204610BD30B505462A46A5
:100440000B4612F8010B13F8014B08B1A042F8D08B
:100450001CB1002802D06D1CF1E7284630BD421CBB
:1004600010F8011B0029FBD1801A704710B500223B
:1004700000E0521C835C8C5CA34201D1002BF8D1BC
:10048000D8B2E1B2401A10BD30B50546002003468F
:1004900000E05B1C934205D2EC5CC85C201A01D1E1
:1004A000002CF6D130BD00000FB400B58DB010A9FE
:1004B00009900B9000914FF0FF300A9000200C90B3
:1004C00005480690054807906A4609A80F9900F06C
:1004D00093FA0DB05DF814FB150A0008330A000802
:1004E0002DE9FF5F1D464FF0FF3BD5E901469146E0
:1004F0005F464FF00008A9697F1C01988847296A68
:10050000824688470028F6D1BAF1FF3F0CD024F488
:10051000C064002E19DD600614D5BAF12B0F09D086
:10052000BAF12D0F0ED103E0584604B0BDE8F09F9C
:1005300044F48064A9697F1C01988847761E82462E
:10054000002E02DDBAF1300F03D0B9F1000F26D032
:1005500032E0A969761E44F400747F1C0198884734
:100560008246002E05DDBAF1780F06D0BAF1580F99
:1005700003D0B9F1000F10D01EE0B9F1000F02D086
:10058000B9F1100F18D1A969761E24F400747F1CEC
:10059000019888478246102002E0082000E00A20E7
:1005A000814609E008FB0908A969761E44F4007435
:1005B0007F1C019888478246002E05DD494650463B
:1005C00000F005FA0028EDDAE96901988847A005EE
:1005D00002D46FF00100A8E7E00725D1600613D52B
:1005E000600502D5C8F1000000E0404629680A1DF8
:1005F0002A600968220501D5087015E0220701D597
:10060000088011E008600FE02868011D296000687B
:10061000210502D580F8008006E0210702D5A0F868
:10062000008001E0C0F8008038467EE72DE9FF4FEA
:10063000087881B09946FF2805D0491C2D2804D0A0
:100640000024002308E000230BE00124F9E703EB7A
:10065000830300EB4303491C0878FF28F7D104B15A
:100660005B4200200090147801462D2C01D02B2CE9
:1006700004D1521C2D2C12D0002400940025167891
:10068000FF2E0ED00A24A0FB04C801FB0481002722
:1006900000FB0711521C16EB0C006941EFE7012427
:1006A000EBE7994450EA01020ED00024AA4D2646F9
:1006B000DFF8A88200F056FB82468B46B9F10000B5
:1006C00009DAC9F100071BE001980021C0E9001117
:1006D00005B0BDE8F08F074612E0F80707D02246C4
:1006E0002B463046414600F05CFA064688462246D4
:1006F0002B461046194600F054FA04460D467F106A
:10070000002FEAD1B9F1000F324643465046594610
:1007100002DA00F0B8FA01E000F043FA009A0AB1F8
:1007200081F00041019AC2E90001D1E72DE9FF4FB4
:100730001F468DB0D7E901464FF0FF382E204546C1
:100740004FF000090B90B9696D1C0E988847396A03
:10075000824688470028F6D1BAF1FF3F0AD024F438
:10076000D064002E11DDBAF12B0F08D0BAF12D0F95
:100770000BD102E0404611B0ABE744F48064B969A4
:100780006D1C0E9888478246761E6946600501D525
:100790002D2000E02B208DF8000001F1010B0DF160
:1007A000200809E0B9696D1C0E98884782460F98A9
:1007B00044F40074761E0560002E02DDBAF1300F9D
:1007C000F0D00B998A453ED144F0800406E00F99A1
:1007D000681CA9F1010944F400740860B9696D1C32
:1007E000761E0E98884782463028F0D02BE00B9971
:1007F0008A4505D1200603D444F08004761E18E013
:10080000504609F049F808B30DF11301761E44F47F
:1008100000748B4508D2AAF130000BF8010B2006BA
:1008200007D5A9F1010003E0200602D409F1010077
:100830008146A00502D50F99681C0860B9696D1C36
:100840000E9888478246002ED1DC53E0002E51DD01
:10085000BAF1650F02D0BAF1450F4BD1A00549D5C9
:10086000B9696D1C24F44074761E0E988847824640
:10087000002E0CDD2B2804D0BAF12D0F07D144F443
:100880008074B9696D1C0E9888478246761EE00513
:1008900001D52D2100E02B2108F8011BCDF82C807B
:1008A00021E00DF12901761E44F4007488450CD234
:1008B000AAF1300010F0FF0088F8000002D10B9977
:1008C000884509D908F1010806E0E00501D524486A
:1008D00001E042F20F708146B9696D1C0E9888479D
:1008E00082460F980560002E04DD504608F0D4FFC4
:1008F0000028D6D1F9690E988847FF208BF80000B0
:1009000088F800000020069007904B466A4608A928
:1009100006A8FFF78BFEA00502D46FF001002AE7BE
:1009200014F0240F0AD0E00714D1DDE9061238686C
:10093000031D3B600068C0E900120BE0DDE9060121
:1009400000F04CFA0146E00704D13868021D3A6015
:100950000068016028460EE7000024400000F03FD8
:10096000F1D8FFFF30B50B460146002020220124BC
:1009700009E021FA02F59D4205D303FA02F5491B6D
:1009800004FA02F52844151EA2F10102F1DC30BD83
:10099000202A04DB203A00FA02F10020704791403F
:1009A000C2F1200320FA03F3194390407047202A34
:1009B00004DB203A21FA02F00021704721FA02F309
:1009C000D040C2F1200291400843194670473A28AE
:1009D00000D2303820F02002412A01D3A2F13700A2
:1009E000884201D34FF0FF30704700000268114485
:1009F0001378016018467047D16004495161044979
:100A0000116200211161114600F02EBAED090008B3
:100A10005D0E0008426842B1016811F8013B23B144
:100A2000521EC0E90012184670470121C160881E9D
:100A3000704742685AB1C368016843B983688B4202
:100A400005D0491E521CC0E90012002070474FF02B
:100A5000FF3070472DE9FE4F804681EA0300C00F4A
:100A60000C46009021F0004123F00045B8EB020055
:100A7000A94105D24046214690461C460B460246F7
:100A800023F00040104347D0270DC7F30A00C3F3FB
:100A90000A510290401A019040286BDAC3F3130008
:100AA00040F4801B0098924620B10023D2EB030A49
:100AB00063EB0B0B01985946C0F140025046FFF71B
:100AC00067FF06460D4650465946019A00F0B4F9B4
:100AD00010EB08006141002487EA115284EAE773B1
:100AE0001A4340D0009A62B3019A012A4FEA075292
:100AF00015DC001B61EB02014FF0004202EA0752D5
:100B0000CDE90042001C41F5801132462B4600F031
:100B100087FB03B0BDE8F08F40462146F9E7001B94
:100B200061EB0201001C41F5801300185B412018A5
:100B3000A2F5001747EB030140EAD570B6196D41E5
:100B400011E06D084FEA360645EAC0754FEA0752D4
:100B5000001B61EB0201001C41F5801149084FEABE
:100B600030000019514132462B4603B0BDE8F04F2A
:100B700000F047BB0098012240000023D0EB0202A6
:100B800063EBE073009821464FEAE074B8EB000095
:100B900061EB0401E9E783F000435BE781F000418A
:100BA00058E72DE9FE4F81EA030404F0004421F0E8
:100BB000004100944FF0000B23F0004350EA010481
:100BC0005ED052EA03045BD0C3F30A54C1F30A5562
:100BD0002C44A4F2F3340194A0FB0254C1F313019A
:100BE00041F48011C3F3130343F4801301FB024467
:100BF00000FB034E840A970A44EA815447EA83576C
:100C0000A4FB076802958D0A05FB07854FEA932C24
:100C100004FB0C542705029D4FEA065847EA163795
:100C2000B5EB08056EEB070C870E920E47EA8117AD
:100C300042EA8312A7FB0201B6EB0B0164EB00044E
:100C40002B0D43EA0C335E1844EB1C50DA46514638
:100C5000E7FB0201C5F313044FEA0B3343EA1453D5
:100C60004FEA0432019C43EA0603A4F10C04029407
:100C7000009CCDE900B400F0D3FA03B0BDE8F08FDA
:100C800000200146F9E72DE9F04D81EA030404F064
:100C9000004B21F0004514464FF0000A23F00041BC
:100CA00050EA050220D054EA01021DD0C5F30A57CC
:100CB0000246C5F31303C1F31300C1F30A5640F40F
:100CC000801543F48013A7EB0608101BD64608F2E4
:100CD000FD3873EB050002D308F1010801E092181A
:100CE0005B41B8F1000F03DA00200146BDE8F08D4A
:100CF00000204FF48011064684460EE0171B73EB6C
:100D0000050705D3121B63EB050306434CEA010CF0
:100D100049084FEA300092185B4150EA0107EDD1D3
:100D200052EA030012D082EA040083EA0501084374
:100D300005D0101BAB4106D20122002306E00022A1
:100D40004FF0004302E06FF0010253101AEB06006F
:100D50004CEB085110EB0A0041EB0B01BDE8F04DE4
:100D600000F04FBA0EB540F2334202920022CDE9B4
:100D70000022134600F054FA03B000BDC1F30A523A
:100D8000C1F3130140F2FF3341F480119A4202DAB9
:100D900000200146704740F233439A42A2F23342A8
:100DA00002DC5242FFF703BEFFF7F2BD30B5041E6E
:100DB00071F1000404DB4FF00044404264EB010198
:100DC000141E73F1000405DB1C464FF00043524231
:100DD00063EB0403994208BF904230BD01F0004329
:100DE00030B421F0004150EA010206D00A0DA2F50C
:100DF0006072C1F31301002A02DC30BC002070478E
:100E0000440F44EAC104C100E01830BC00EBC250FA
:100E100000F0C0B9064C074D06E0E06840F0010361
:100E200094E8070098471034AC42F6D3FFF738FA3D
:100E300000F2000820F20008202A06DBCB17203A37
:100E400041FA02F043EAE07306E041FA02F3D040CF
:100E5000C2F120029140084319467047C0B24FF4D6
:100E6000F05100F02BBA00002DE9F34F8BB04FF09A
:100E7000000801F10C000C464FF0010B46460DF145
:100E8000080A01906269012101989047051E2DD042
:100E9000252D2CD0216A8847C0B1626901210198B3
:100EA0009047216A88470028F7D1411E626901985E
:100EB000904700E0761CA1690B988847216A884713
:100EC0000028F7D1E1690B988847DBE7A1690B9807
:100ED00088470746A84201D1761CD3E7E1690B9801
:100EE00088477F1C02D1B8F1000F6FD046E1002780
:100EF00062693D463946019890472A2804D16269C3
:100F00000121019890470125DFF88492626901214F
:100F100001989047A0F130010A290AD24F45E5DC3B
:100F200007EB870100EB4107303FDFD445F01005A8
:100F3000ECE7E90601D46FF000476C280AD04C2892
:100F400014D0682815D06A280DD074281CD07A28AF
:100F50001AD01DE062690121019890476C2802D0E7
:100F600045F0040514E045F002050DE045F02005CC
:100F70000AE06269012101989047682802D045F093
:100F8000080505E045F40065626901210198904774
:100F9000C4E9015765283DD019DC58287AD00CDC0B
:100FA000452837D004DC252826D0412831D131E02E
:100FB00046282FD047282CD12CE05B2877D06128F9
:100FC00028D063287CD0642823D15AE0D0E06F2851
:100FD00048D008DC66281DD067281BD0692821D09E
:100FE0006E2816D127E0702845D0732868D0752860
:100FF00047D078280DD14DE0A1690B988847054668
:1010000025283FF469AFE1690B9888476D1C3FF4D0
:101010006AAFB3E023466A466FF001000B99FFF711
:1010200085FB9EE045F040006060A80723464FF036
:10103000000236D43EE0E8077FF447AF2068011D88
:1010400021600068290501D506701BE7290701D535
:10105000068017E7A90703D5F117C0E9006111E77A
:1010600006600FE745F040006060A80723464FF098
:10107000080216D41EE040F60E0125EA0100606069
:1010800016E045F040006060A80723464FF00A02D2
:1010900007D40FE045F040006060A80708D523465C
:1010A00010226FF001000B99AFF3008059E007E0C8
:1010B000234610226FF001000B99FFF711FA50E060
:1010C0004FF000094F464B46632802D05B2806D0FC
:1010D00040E0E80601D40120A06001273AE06269FF
:1010E0000121019890475E2805D14FF001096269FE
:1010F000494601989047216939B900210A4653466B
:1011000043F82120491C0829FADBB0B3216969B9E9
:10111000C11700EBD16253110AEB830122F01F02C9
:10112000821A01200B68904003430B606269012121
:10113000019890475D28E8D1B9F1000F09D000204F
:10114000514651F82020D24341F82020401C082865
:10115000F7DB02AB224600976FF001000B99AFF36B
:10116000008000280CDA401C08D1BBF1000F05D02C
:101170004FF0FF300DB0BDE8F08FFFE74046F9E7D4
:10118000E90701D108F1010806444FF0000B79E6A8
:10119000CCCCCC0C0029A8BF7047401C490008BF2C
:1011A00020F00100704710B4B0FA80FC00FA0CF097
:1011B00050EA010404BF10BC704749B1CCF12004CF
:1011C00021FA04F411FA0CF118BF0121214308435C
:1011D000A3EB0C01CB1D4FEA00614FEA102042BF88
:1011E000002010BC704700EBC35010440029A4BF7E
:1011F00010BC7047401C490008BF20F0010010BC23
:10120000704710B5141E73F1000408DA401C41F158
:10121000000192185B411A4301D120F0010010BD7A
:101220002DE9F04D92469B4611B1B1FA81F202E0F0
:10123000B0FA80F220329046FFF7AAFB04460F4630
:1012400040EA0A0041EA0B0153465A46084313D0CC
:10125000114653EA010019D0C8F140025046FFF789
:10126000A6FB05460E46504659464246FFF790FB00
:10127000084305D0012004E020463946BDE8F08D42
:101280000020054346EAE0762C4337430A9863057D
:10129000E40AA0EB08000022FD0A44EA47540A30A1
:1012A00002D500200146E9E7010510196941DDE991
:1012B000084500196941BDE8F04DA2E77F2801D932
:1012C000002208E0064A02EB5002C007127800D163
:1012D000120902F00F020120904008407047000000
:1012E00098F1000870B53A4905460068884202D076
:1012F000384A904202D1D1F8080302E03648D0F8CB
:10130000080310F4403F11D004F040FC0446686824
:10131000B0F5803F06D0B0F5003F03D0B0F5403FB8
:1013200026D101E0000C17E0A40821E04FF40020D2
:1013300003F030FD044668688103890B18D18114DD
:101340000C2915D2DFE801F0140606060606060B86
:101350000D0F1113800C4000B4FBF0F408E02409D9
:1013600006E0640904E0A40902E0E40900E0240ABC
:1013700003F012FA41F20301884208D81748844268
:101380002868816813D821F48071816070BD144988
:101390006008884204D82868816821F44071F4E725
:1013A0001049884206D82868816821F4407141F4C8
:1013B0008071EAE70C4988422868816804D821F4E2
:1013C000407141F40071E0E741F44071DDE7000055
:1013D000002002400021024000600258002D31012F
:1013E000105E5F0020BCBE0040787D0110B5846BAC
:1013F000616D11F0500F06D0616DC90625D52046EC
:1014000000F0A0FF10BD606D40F4007060652068C2
:101410000168090707D506F032FA90B12068C06864
:10142000800403D50DE0C06880070AD1606D20F408
:1014300080706065606DC00403D4606D40F0010091
:101440006065204600F07CFF10BDE16CC96CBDE812
:101450001040084710B5806B416D41F04001416577
:10146000816D41F00401816500F06CFF10BD10B585
:10147000806B00F066FF10BD70B50446006881689F
:1014800011F0010F40D18168204A11422DD18168AD
:10149000D5432940491C816003F084F91C49064664
:1014A00020681C4B884201D0984201D11A4A00E0C2
:1014B0001A4A9268984202F01F0200D00146814207
:1014C0001DD0E2B120E0816811F0010F03D18168E5
:1014D0002940491C816003F065F9801B02280ED960
:1014E00020680068C043C00709D0606D40F010005C
:1014F0006065A06D40F00100A065012070BD20680E
:101500000168C943C907DED1002070BD3F000080DB
:1015100000200240002102400023024000630258E4
:101520000146014805F054B8D404002410B504481D
:1015300005F060F8042801D0012010BD002010BD86
:10154000D404002410B500F015F8012801D00220C1
:1015500010BD074805F0EAF9044634B904484FF4D1
:10156000804104F091FE00B10124204610BD00002E
:10157000D404002481B0012000909DF8000001B047
:101580007047000010B5002413460A460146034880
:1015900005F0DAFA00B10124204610BDD40400247D
:1015A00002480022012140680AF036BFEC00002406
:1015B00010B5002413460A460146034805F038FBDF
:1015C00000B10124204610BDD404002402480022AA
:1015D000022140680AF020BFEC000024FEE7000072
:1015E000014801F0A7BB000070060024014801F08B
:1015F000A1BB0000E8060024014801F09BBB0000ED
:1016000060070024014801F095BB0000D8070024C2
:10161000014801F08FBB0000BC030024294A016887
:1016200091423AD0274A1832914236D0254A303278
:10163000914232D0234A483291422ED0214A603220
:1016400091422AD01F4A7832914226D01D4A9032C8
:10165000914222D01B4AA83291421ED01A4A91428E
:101660001BD0194A1832914217D0174A3032914292
:1016700013D0154A483291420FD0134A603291423A
:101680000BD0114A7832914207D00F4A90329142E2
:1016900003D00D4AA832914211D1CAB21823103A90
:1016A000B2FBF3F26FF30901032A02F00703074AC2
:1016B000D25CC26500D9091D81650846704721F0DA
:1016C000FF01F9E7100002401004024078EC000826
:1016D00030B5224A012301689142CAB21BD01F4C87
:1016E0001434A14217D01D4C2834A14213D01B4CF6
:1016F0003C34A1420FD0194C5034A1420BD0174CAE
:101700006434A14207D0154C7834A14203D0134C65
:101710008C34A1420CD11421114C083AB2FBF1F1E6
:101720000F4A803201F01F0504EB8101AB4010E04D
:101730000C4D1824103A0D44B2FBF4F1A82D00D83A
:101740000831094A01F01F0402EB8101064AA34057
:101750008032603080E80E0030BD0000085402582E
:1017600000580258F0FBFDBF0008024010B5027996
:10177000531E072B2DD8174C0168A1421BD0154CC6
:101780001434A14217D0134C2834A14213D0114C69
:101790003C34A1420FD00F4C5034A1420BD00D4C21
:1017A0006434A14207D00B4C7834A14203D0094CD9
:1017B0008C34A14203D10849074C443102E0074967
:1017C000064C443104EB8202C0E91B2101219940FF
:1017D000416710BD08540258FC580258FC080240EA
:1017E00010B583694FF0C074826A0146002053B17E
:1017F000B3F5005F15D072B1012A0CD0022A0AD0CD
:10180000032A09D104E01AB1012A06D0022A03D121
:10181000C96AC90100D5012010BDC96AA142FAD028
:1018200010BD002AF7D0012AF2D0022AF3D0032AF1
:10183000F3D010BD2DE9F04F804E804FDFF8FC91C2
:101840001836DFF8F8A148370468856D0AF1300AC8
:10185000DFF8ECB14C45DFF8ECC1DFF8ECE16DD01E
:10186000B4426BD0544569D0BC4267D0DFF8D08118
:10187000A8F11808444561D05C455FD064455DD04F
:1018800074455BD0DFF8C481444557D0DFF8BC8194
:1018900008F11808444551D0DFF8B08108F130084C
:1018A00044454BD0DFF8A48108F14808444545D0B1
:1018B000DFF8988108F1600844453FD0DFF88C815B
:1018C00008F17808444539D0DFF8808108F19008A4
:1018D000444533D0DFF8748108F1A80844452DD081
:1018E000DFF86C81444529D0DFF8648108F11408E1
:1018F000444523D0DFF8588108F1280844451DD01D
:10190000DFF84C8108F13C08444517D0DFF84081EE
:1019100008F15008444511D0DFF8348108F164081B
:1019200044450BD0DFF8288108F17808444505D0FC
:10193000DFF81C8108F18C08444509D1D0E9194829
:10194000C4F80480C46E1CB1D0E91C48C4F80480FB
:1019500004684C452ED0B4422CD054452AD0BC4209
:1019600028D0374E183EB44224D05C4522D064457E
:1019700020D074451ED0354EB4421BD0334E18369D
:10198000B44217D0314E3036B44213D02F4E4836C1
:10199000B4420FD02D4E6036B4420BD02B4E783669
:1019A000B44207D0294E9036B44203D0274EA83611
:1019B000B44215D190F85C603F2406F01F06B44095
:1019C000AC600468256825F4802525602EE09A60C7
:1019D0000068C160BDE8F08F99600068C260F9E7F7
:1019E0001B4EB4421BD01A4E1436B44217D0184EB8
:1019F0002836B44213D0164E3C36B4420FD0144EA3
:101A00005036B4420BD0124E6436B44207D0104E5A
:101A10007836B44203D00E4E8C36B442DAD190F808
:101A20005C60012406F01F06B4406C6004686360CB
:101A30008368402B0368CFD1C9E700001000024043
:101A400088000240A0000240B8000240100402409A
:101A500008540258704772B6FEE70022AFF30080C8
:101A600084464DF8044D01200E4B5C7A002C16D1B3
:101A7000587A1C54587A03EB8000C0F804C0587A96
:101A800003F1080C00F80C20587A421C5A723030CE
:101A900008703A2048702F208870CC7000205DF8C4
:101AA000044B704710830024014802F07FB9000006
:101AB0003404002406480022012110B501F0F0FF93
:101AC000002803D0BDE81040FFF7C5BF10BD0000DF
:101AD000340400240A48002110B50222012302C068
:101AE00080E80E00C1600161011F064802F050F855
:101AF000002803D0BDE81040FFF7ADBF10BD0000C7
:101B0000E00C002434040024014802F006BD00006B
:101B100034040024F0B503684FF6FC716D4C426B41
:101B2000D3F884508D4345EA8205C3F88450036896
:101B300053F8845F068F25F47F0545EA06451D604E
:101B4000836B654D9F180268D2F888308B4343EA57
:101B50008703C2F88830026852F8883F868F23F4E2
:101B6000FE0343EA06431360066856F8A03FC26BC3
:101B70008B4307EB420243EA82033360076857F85E
:101B8000A03FB0F8406023F4FE0343EA06433B6005
:101B9000D0E9103603FB06220368D3F8B0608E4309
:101BA00046EA8206C3F8B0600368B0F84860D3F82C
:101BB000B07027F4FE0747EA0646C3F8B060D0E9E4
:101BC0001267036806FB0722D3F8AC608E4346EA2F
:101BD0008206C3F8AC60D0E91467036806FB0722ED
:101BE000D3F8F0608E4346EA8206C3F8F0600368DB
:101BF000B0F85860D3F8F07027F47C1747EA06462F
:101C0000C3F8F0600368876D53F8C06F02EB4702BA
:101C10008E4346EA820119600168B0F85C20D1F871
:101C2000C03023F47C1343EA0242C1F8C0200168AB
:101C300090F86020D1F8C03023F07C5343EA026270
:101C4000C1F8C020416B04EB8101C166826B01EBDE
:101C500082020267C36B02EBC3024267D0E9103411
:101C6000634302EB83028267D0E91234634302EBE1
:101C70008302C267D0E91434634302EB8302C0F8E5
:101C80008020836D02EBC303C0F88430C46D826E84
:101C9000544303EB8403C0F88830046E544303EBD1
:101CA0008402C0F89020AA420AD9D0F89C200321CF
:101CB00042F02002C0F89C2080F898100120F0BD6E
:101CC000002200E004C1D0F890308B42FAD8002006
:101CD000F0BD000000AC0040FCD30040F0B58E68C1
:101CE0000C69D1E9005744EA0604DFB145F08045AC
:101CF0002C43866ED1E906C54F695E4391F82030CA
:101D000045EA0C05D0F884E00020D1F80CC047EA81
:101D100003630D4F1D430EEB860345EA0C05E3E814
:101D200002450AE044EA8544E3E71418155C001D07
:101D3000D4F8014045EA042410C3CC6807EB1444EE
:101D400024788442F1D8F0BD80EC000810B5164923
:101D5000ADF5825D1548FFF780FE1648012214A1FB
:101D600009F0FAFA144C011E217007D00D2907D092
:101D700012A00BF079FB0DF5825D10BD13A010E0F1
:101D800018A00BF071FB4FF480500090002202214C
:101D900001AB07A008F0B0FF207008B11AA000E066
:101DA00022A00BF061FBE6E7F50000241CED000823
:101DB000303A0000B4720024F4000024B9D2D4D820
:101DC000CAA7B0DCA3BA25640D0A00000D0A53446B
:101DD000CEC4BCFECFB5CDB3B9D2D4D8B3C9B9A6A1
:101DE0000D0A00005344BFA8BBB9CEB4B4B4BDA81B
:101DF000CEC4BCFECFB5CDB3A3ACBCB4BDABB8F1C3
:101E0000CABDBBAF0D0A0000B8F1CABDBBAFCAA7BF
:101E1000B0DCA3ACC7EBBCECB2E9BBF2B8FCBBBB1B
:101E20005344BFA8A3A10D0A000000005344BFA85B
:101E3000B8F1CABDBBAFB3C9B9A6A3A10D0A0000D2
:101E40002DE9F0470F4690F850109AB0044601294A
:101E50004FF0000915D00026DFF8F880012084F843
:101E6000500015961696216841450ED13A4D0095C1
:101E7000284605F000FD8246206805F0FCFC60B1B4
:101E80000EE002201AB0BDE8F087606D84F8506063
:101E900040F0200060650120F4E7BAF1000F09D09E
:101EA000616D4FF0010941F020006065484684F8FB
:101EB0005060E7E720684146884201D0A84201D13E
:101EC000264800E0264840F61F72D7F800C0254B90
:101ED000BCF1000F23D0D0F808C0D7F804802CF450
:101EE000404C4CEA080CC0F808C0D4F800C08C453F
:101EF00001D0AC4507D18968AB6801F0010103F05E
:101F00000103194302E0996801F001010029CDD1D4
:101F1000BD683968836829439343194317E087688C
:101F200027F44047876027688F4201D0AF4207D12E
:101F30008968AB6801F0010103F00103194302E075
:101F4000996801F001010029B0D181689143816055
:101F5000ACE70000002002400021024000230240C4
:101F600000630258006002582DE9F84F4FF0000B53
:101F70000446E54E0D46CDF800B05F4690F850009F
:101F8000DFF888A3012808D04FF0010984F85090A9
:101F9000206805F06CFC18B169E10220BDE8F88FFB
:101FA00021682868CA69030328D090FAA0F0B0FA23
:101FB00080F000BF00F01F0309FA03F00243CA617A
:101FC000D5E900124FF00C0C20681F23C1F3846187
:101FD0000CEA921C02F01F02604493409140026B95
:101FE0009A430A430263206805F041FC804620685A
:101FF00005F039FC58EA000003D07FE0C0F38460AC
:10200000D8E72068AA68296805F041FCC04909683A
:10201000B9EB117F06D121686869C968C1F38201F3
:10202000490008E02068C168C906C1686869F5D53B
:1020300001F0100149088840296904292ED022683E
:102040002B6802EB810103F0F8420B6E024303F0B0
:10205000004010430866697E22682869012917D06C
:102060005FF0000102EB8000026E22F000420A43A2
:102070000266287E21682A6901280CD000200B699D
:1020800002F01F02904023F4F04202430A6135E05F
:102090004FF00041E6E74FF40060F0E72068297850
:1020A000026E02F0F842B2EB816F03D1016E21F0B3
:1020B0000041016620682978426E02F0F842B2EBD6
:1020C000816F03D1416E21F000414166206829787B
:1020D000826E02F0F842B2EB816F03D1816E21F083
:1020E0000041816620682978C26E02F0F842B2EBA6
:1020F000816F03D1C16E21F00041C1662068816803
:1021000011F0010F76D150F8C02F95F80CC0814B1B
:1021100029680CF0180C23FA0CF3C1F313080B40D8
:1021200022EA08021A4302607B48E968814277D1BB
:10213000286801031BD090FAA0F1B1FA81F1491C83
:1021400001F01F0109294FEA003131D8002911D0CF
:1021500090FAA0F1B1FA81F101F1010101F01F0142
:1021600009FA01F209D100BFC0F3846109E0C0F3AC
:102170008461E4E7C0F38461EEE790FAA0F1B1FA7C
:1021800081F101F1010101F01F0142EA816102D1F7
:10219000C0F3846003E090FAA0F0B0FA80F000F1A0
:1021A000010000F01F0000EB400041EA005133E065
:1021B00000290ED090FAA0F1B1FA81F101F10101EC
:1021C00001F01F0109FA01F206D100BFC0F38461DA
:1021D00006E0C0F38461F1E790FAA0F1B1FA81F171
:1021E00001F1010101F01F0142EA816103D1C0F355
:1021F000846004E040E090FAA0F0B0FA80F0474A32
:1022000000F1010000F01F0000EB400002EB005065
:1022100041EA000141F00071AA68206805F037FB2F
:10222000D5F800C0BCF1000F26DA3D4B20683D49CF
:10223000DFF8F490984201D0B04201D10A4600E0A4
:102240004A469268984202F0E07201D0B04209D149
:102250009D68D6F8088005F0010508F0010845EAF8
:10226000080503E0DAF8085005F0010545B1606D96
:10227000012740F020006065384684F850B08DE6B4
:102280002A4DAC451CD115021AD45045F4D19842C0
:1022900002D0B04200D049468B6842F4000023F0DF
:1022A000E07202438A60234921480968B1FBF0F0DB
:1022B0004000801C00E0401E00900028FBD1DBE7BE
:1022C0001D4DAC450CD1D5010AD45045D4D198420E
:1022D00002D0B04200D049468B6842F080700EE0D8
:1022E000164DAC45C8D15502C6D45045C4D198420C
:1022F00002D0B04200D049468B6842F4800023F0FF
:10230000E07202438A60B7E7002102400060025891
:102310000010005CFFFF0F000000FF47000020FEE0
:10232000002002400023024000630258000084CBDA
:10233000400D03002C000024000052C70000B8CF5D
:102340007047704770470000F8B54FF00006040072
:102350003546009602D0606D10B107E00120F8BD4F
:10236000204600F005F9A66584F850602068816871
:10237000C1F3407119B18168704A114081602068D1
:102380008168C1F3007181B981686D4A114041F0E3
:10239000805181606C496B480968B1FBF0F0401CCA
:1023A00000E0401E00900028FBD120688168C1F346
:1023B000007141B9616D012541F010016165A16DA8
:1023C00041F00101A16505F052FA616DC90600D422
:1023D00020B1606D012540F0100093E0606D20F4A5
:1023E000807040F0020060652068816811F0010F84
:1023F0001FD1564A564B904201D0984207D191685E
:102400009E6801F0010106F00106314303E05149E5
:10241000896801F0010161B9904201D0984201D16F
:102420004D4800E04D488268616822F47C120A43FE
:10243000826002F0B1F941F20301884202D9A0683A
:1024400010280CD0617D227FA368206B490341EAEC
:10245000024118430843217F01290CD010E0607D20
:10246000227F216B400340EA024241F010001043FA
:1024700040F00C00EFE7218C394A02EB4141084360
:10248000616A29B1A26A01F47871014342EA01004C
:102490002168344BCA681A400243CA60206805F0BC
:1024A000E6F90646206805F0DEF930431DD12168C3
:1024B00044F20303267DE26AC86842EA8632984302
:1024C0001043C86094F8380001281ED020680169C4
:1024D00021F0010101612068626B016921F0704106
:1024E000114301612046FEF7FDFEE06801282068E7
:1024F0001CD0016B21F00F010163606D20F0020020
:1025000040F0010060652846F8BD2068A28F164F94
:10251000D4E9101C154E07EB0247A36C026941EA8F
:102520000C013B43324019431143D3E7A269016BCD
:10253000521E21F00F011143DEE70000C0FFFF5FD4
:10254000C0FFFF7F400D03002C000024002002404C
:10255000002102400060025800230240006302583C
:102560000000FEFF03C0F0FF0100FFFF1EF800FCAB
:102570002DE9F041B6B0804614212FA8FDF752FF97
:10258000BC216846FDF74EFF2A49D8F80000884272
:102590004CD1022004900C228104CDE9001005A941
:1025A00000252024C023CDE9022081E839006846B7
:1025B000289502F025FD08B1FFF74DFA1E48016885
:1025C00041F020010160006800F0200034901A48BA
:1025D0000830016841F00101016000682FA93195C0
:1025E00000F0010034900320CDE92F40134801F0A2
:1025F000B7FF14480921124C0215C3142060871537
:10260000C4E901159001C4E9035204F11401C4E9BD
:102610000805D600204681E8C80000F0FFFE08B19A
:10262000FFF719FAC8F84C40C4F8388036B0BDE856
:10263000F081000000200240D844025800000258F7
:10264000BC030024700002402DE9F047384E0446D8
:1026500000689146DFF8DC808A46B04201D04045F0
:1026600001D1354900E03549896801F01F0505F0C1
:10267000FEF8002859D194F85000012855D00120C7
:102680004FF0000784F8500025B1052D02D0092D28
:1026900000D003E02046FEF7EFFE18B184F850703A
:1026A000BDE8F087616D40F60163206899434045BD
:1026B00041F48071616500D00646864200D01DB9A4
:1026C000606D20F480106065606DC00404D5A06D5D
:1026D00020F00600A06500E0A7651C20E16C184A08
:1026E000CA63E26C17491164E26C1749D16421682E
:1026F000086084F850702068416841F01001416022
:102700002068E16AC26822F003020A43C2602168BD
:102710004B46E06C5246403101F062F821680B4BA9
:102720008A681A40121D8A60BAE70220B8E70000E2
:1027300000200240002102400023024000630258B2
:10274000ED1300086F14000855140008C0FFFF7F48
:102750002DE9F84F044602F025F800903CB194F8BA
:102760003500022806D0802161650020E4E00120C8
:10277000BDE8F88FC74DC74EC649183520683036BA
:10278000DFF81483DFF814938842DFF814A3DFF82E
:1027900014B32ED0A8422CD0B0422AD0404528D025
:1027A000484526D0504524D0584522D0BD4A18323D
:1027B00090421ED0BC4A90421BD0BB4A1832904275
:1027C00017D0B94A3032904213D0B74A48329042BB
:1027D0000FD0B54A603290420BD0B34A7832904263
:1027E00007D0B14A9032904203D0AF4AA83290420B
:1027F00009D1026822F01E0202602068426922F0BC
:102800008002426103E0026822F00E020260276843
:102810008F4238464DD0A8424BD0B04249D04045B7
:1028200047D0484545D0504543D0584541D09D4AB2
:10283000183290423DD09C4A90423AD09A4A18327F
:10284000904236D0984A3032904232D0964A48323E
:1028500090422ED0944A603290422AD0924A7832E6
:10286000904226D0904A9032904222D08E4AA8328E
:1028700090421ED08D4A90421BD08C4A1432904216
:1028800017D08A4A2832904213D0884A3C3290426C
:102890000FD0864A503290420BD0844A6432904224
:1028A00007D0824A7832904203D0804A8C329742D5
:1028B00004D1206E026822F480720260754920689B
:1028C000884228D0A84226D0B04224D0404522D009
:1028D000484520D050451ED058451CD0714918316C
:1028E000884218D07049884215D06F491831884203
:1028F00011D06D49303188420DD06B494831884242
:1029000009D069496031884205D0674978318842E9
:1029100001D065499031016821F0010101600EE0AC
:1029200001F040FF0099401A052808D9202262656D
:102930000321002084F8351084F8340017E7386844
:10294000C007EDD1534A0121206890422ED0A84201
:102950002CD0B0422AD0404528D0484526D05045FA
:1029600024D0584522D04F4B183398421ED04E4B9E
:1029700098421BD04C4B1833984217D04A4B3033F7
:10298000984213D0484B483398420FD0464B60339F
:1029900098420BD0444B7833984207D0424B903347
:1029A000984203D0404BA833984208D194F85C7009
:1029B0003F23A06D07F01F07BB40836007E094F83A
:1029C0005C30A06D03F01F0301FA03F3436020683D
:1029D00090424DD0A8424BD0B04249D0404547D05C
:1029E000484545D0504543D0584541D02D4A18322E
:1029F00090423DD02C4A90423AD02B4A1832904215
:102A000036D0294A3032904232D0274A483290425A
:102A10002ED0254A603290422AD0234A7832904202
:102A200026D0214A9032904222D01F4AA8329042AA
:102A30001ED01E4A90421BD01C4A1432904217D01E
:102A40001A4A2832904213D0184A3C3290420FD092
:102A5000164A503290420BD0144A6432904207D04A
:102A6000124A7832904203D0104A8C3290420BD1F5
:102A7000D4E919024260E06E30B1026822F480723B
:102A80000260D4E91C024260002084F8351084F80A
:102A900034006DE610000240580002407000024011
:102AA00088000240A000024010040240085402586E
:102AB0002DE9F05F28B190F83510022904D080216B
:102AC00041650120BDE8F09F904C904B0168183C97
:102AD00018338E4ADFF83C92A1428D4CDFF838E281
:102AE0008E4FDFF83CB2DFF83CA28F4D8F4E31D0D5
:102AF00091422FD099422DD0A1422BD0494529D0C7
:102B0000714527D0B94225D0DFF810C20CF1180C5E
:102B100061451FD0DFF808C2ACF1600C614519D0E7
:102B2000DFF8FCC1ACF1480C614513D0DFF8F0C10F
:102B3000ACF1300C61450DD0DFF8E4C1ACF1180CFC
:102B4000614507D0594505D0514503D0A94201D070
:102B5000B1422CD1DFF8B4C14FF0040880F83580C1
:102B6000ACF1180C61451DD091421BD0994219D08F
:102B7000A14217D0494515D0714513D0B94211D0A3
:102B80006648183081420DD065486038814209D0CE
:102B900063484838814205D061483038814201D0CD
:102BA0005F481838086820F001000860ABE0D1F8F1
:102BB00000C02CF00E08DFF854C1C1F80080ACF161
:102BC000180C0168614527D0914225D0994223D045
:102BD000A14221D049451FD071451DD0B9421BD01B
:102BE000DFF838C10CF1180C614515D0DFF830C1A1
:102BF000ACF1600C61450FD0DFF824C1ACF1480C9A
:102C0000614509D0DFF818C1ACF1300C614503D043
:102C1000DFF80CC1ACF1180CD1F800C02CF0010C9D
:102C2000C1F800C0DFF8E4804FF0010C0168A8F1A2
:102C30001808414546D0914244D0994242D0A14221
:102C400040D049453ED071453CD0B9423AD0334A94
:102C50001832914236D0324A603A914232D0304AEC
:102C6000483A91422ED02E4A303A91422AD02C4AEC
:102C7000183A914226D0594524D0514522D0A94234
:102C800020D0B1421ED02A4A91421BD0284A143289
:102C9000914217D0264A2832914213D0244A3C321E
:102CA00091420FD0224A503291420BD0204A6432D6
:102CB000914207D01E4A7832914203D01C4A8C328E
:102CC000914218D1016E0A6822F480720A6090F86D
:102CD0005C20816D02F01F020CFA02F24A60D0E91A
:102CE00019124A60C16E31B10A6822F480720A601A
:102CF000D0E91C124A600022016D80F835C080F8CE
:102D0000342001B188470020DCE6000028000240A2
:102D1000580002407000024088000240A0000240BB
:102D20007004024088040240A0040240B80402403B
:102D3000085402582DE9FC5F0446F74E0020DFF8E6
:102D4000D88300904FF41652F44808F11808A56D86
:102D5000DFF8C493DFF8C0A3016809F130092068E7
:102D60000AF1480AB1FBF2F1B04201912F68D5F89F
:102D700000C0DFF8ACB335D04146884232D0484578
:102D800030D050452ED058452CD0E54918318842D6
:102D900028D0E3493031884224D0E1494831884283
:102DA00020D0E04988421DD0DE491831884219D030
:102DB000DC493031884215D0DA494831884211D097
:102DC000DFF860E30EF1600E70450BD0D54A783223
:102DD000904207D0D34B9033984203D0D149A831C9
:102DE00088427DD194F85C20082102F01F0201FA8C
:102DF00002F23A424AD0B04232D0404530D0484543
:102E00002ED050452CD058452AD0C54A1832904271
:102E100026D0C34A3032904222D0C14A4832904232
:102E20001ED0C04A90421BD0BE4A1832904217D0E2
:102E3000BC4A3032904213D0BA4A483290420FD046
:102E4000B84A603290420BD0B64A7832904207D0EE
:102E5000B44A9032904203D0B24AA832904203D191
:102E6000026802F0040202E0026802F008026AB19D
:102E7000026822F00402026094F85C0000F01F0077
:102E80008140A960606D40F00100606594F85C00CD
:102E9000012100F01F008140394240D02068B0423B
:102EA00034D0404532D0484530D050452ED05845DA
:102EB0002CD09B4A1832904228D0994A3032904206
:102EC00024D0974A4832904220D0964A90421DD052
:102ED000944A1832904219D0924A3032904200E01F
:102EE000AFE113D08F4A483290420FD08D4A603202
:102EF00090420BD08B4A7832904207D0894A903268
:102F0000904203D0874AA83290427DD1406910F0A8
:102F1000800F04D0A960606D40F00200606594F8F5
:102F20005C00042100F01F00814039423ED020683F
:102F3000B04232D0404530D048452ED050452CD0FC
:102F400058452AD0764A1832904226D0744A3032F8
:102F5000904222D0724A483290421ED0714A90422A
:102F60001BD0704A1832904217D06E4A30329042CD
:102F700013D06C4A483290420FD06A4A6032904275
:102F80000BD0684A7832904207D0664A903290421D
:102F900003D0644AA83290424ED1006810F0020F6C
:102FA00004D0A960606D40F00400606594F85C0096
:102FB000102100F01F008140394258D02068B042F3
:102FC00034D0404532D0484530D050452ED05845B9
:102FD0002CD0534A1832904228D0514A3032904275
:102FE00024D04F4A4832904220D04E4A90421DD0C1
:102FF0004C4A1832904219D04A4A3032904215D089
:10300000484A4832904200E014E00FD0454A60320E
:1030100090420BD0434A7832904207D0414A9032D6
:10302000904203D03F4AA832904207D1006800F096
:10303000080006E0006872E70068B7E7006800F083
:103040000400A0B1A96020680168490304D50068A4
:10305000000308D5A16C07E00168C90503D4016825
:1030600021F008010160216C09B12046884794F8DD
:103070005C00202100F01F008140394279D0206897
:10308000B04232D0404530D048452ED050452CD0AB
:1030900058452AD0224A1832904226D0204A30324F
:1030A000904222D01E4A483290421ED01D4A904281
:1030B0001BD01C4A1832904217D01A4A3032904224
:1030C00013D0184A483290420FD0164A60329042CC
:1030D0000BD0144A7832904207D0124A9032904274
:1030E00003D0104AA832904203D1006800F01000CB
:1030F00002E0006800F00200B0B3A96094F8350067
:103100000428206801680FD049037ED500680003B9
:103110002BD4616C2AE00000100002402C00002437
:10312000700002401004024021F016010160206886
:10313000416921F080014161206C08B9A06C20B187
:103140002068016821F00801016094F85C303F219B
:10315000012003F01F0300229940A96084F8350084
:1031600084F83420216D65E003E0E16B09B120466D
:103170008847606D00287DD0606DC00759D02068F9
:10318000042184F83510B0422BD0404529D0484561
:1031900027D0504525D0584523D09D49884220D07E
:1031A0009B49183188421CD099493031884218D047
:1031B0009849884215D097491831884211D09549CD
:1031C000303188420DD093494831884209D0914925
:1031D0006031884205D08F497831884201D08D49CD
:1031E0009031016821F00101016020680099019A85
:1031F000491C0091914202D80168C907F6D10068C4
:10320000C00710D003200FE0FFE70168C905ACD468
:1032100003680121002223F01003036084F83510B5
:1032200084F83420A1E7012084F83500002084F8D8
:103230003400E16C00291DD002B02046BDE8F05FEB
:103240000847754988421DD073491431884219D006
:1032500071492831884215D06F493C31884211D0DC
:103260006D49503188420DD06B496431884209D094
:10327000694900E084E07831884203D066498C31A6
:1032800088427DD194F85C800427016808F01F080B
:1032900007FA08F717EA0C0F009746D04F0744D5F6
:1032A00000980F04686003D5C8033CD4A16CC1E743
:1032B000880638D42068B0422DD0554960398842FC
:1032C00029D0484527D0504525D0584523D05049CE
:1032D000884220D04E49183188421CD04C493031A8
:1032E000884218D04B49884215D04A491831884243
:1032F00011D04849303188420DD046494831884282
:1033000009D0704507D0904205D0984203D041497A
:10331000A831884203D1016821F0080102E0016868
:1033200021F004010160216C84E7022707FA08F705
:1033300017EA0C0F00974ED08F074CD500980F045A
:10334000686003D5C80344D4616C73E7880640D431
:103350002068B0422FD02E49603988422BD0484592
:1033600029D0504527D0584525D02949884222D018
:103370002749183188421ED025493031884200E063
:1033800044E018D02349884215D022491831884298
:1033900011D02049303188420DD01E494831884231
:1033A00009D0704507D0904205D0984203D0194902
:1033B000A831884203D1016821F0140102E00168BC
:1033C00021F00A010160012184F83510002084F801
:1033D0003400E16B2EE7082202FA08F212EA0C0F21
:1033E00014D0090712D5016821F00E01016094F88C
:1033F0005C100120002201F01F0100FA01F1696058
:10340000606584F8350084F8342012E7BDE8FC9F3D
:103410008800024010040240085402582DE9F05F71
:10342000044601F0BFF9002C07467DD0E34E02218F
:1034300020684FF00308DFF888934FF00005DFF8AD
:1034400084A3B042DFF880B334D0DC4A1832904213
:1034500030D048452ED050452CD058452AD0DA4A95
:103460001832904226D0D84A3032904222D0D64AE2
:10347000483290421ED0D54A90421BD0D34A1832CF
:10348000904217D0D14A3032904213D0CF4A4832BE
:1034900090420FD0CD4A603290420BD0CB4A783266
:1034A000904207D0C94A9032904203D0C74AA8320E
:1034B00090427DD184F83510B04284F834502ED03B
:1034C000BE49183188422AD0484528D0504526D0D8
:1034D000584524D0BC491831884220D0BA493031EF
:1034E00088421CD0B8494831884218D0B749884230
:1034F00015D0B6491831884211D0B44930318842CC
:103500000DD0B2494831884209D0B0496031884273
:1035100005D0AE497831884201D0AC49903101687C
:1035200021F00101016008E027E100BF01F03AF954
:10353000C01B052801D920211CE120680068C007B4
:10354000F4D104F108002168D4E9053C8E4685C811
:1035500009681043D4E907281F43636A38439C4F26
:1035600040EA0C001043394040EA0800042B40EACE
:10357000010003D1D4E90B121143084395490968AE
:103580006FF30F01B1F1005F0FD36168A1F1290260
:10359000052A08D9163A032A05D9083A012A02D978
:1035A0004F39032901D840F48010CEF8000000E024
:1035B00023E02068676A4069042F20F0070047EA8B
:1035C00000070DD1D4E90A01074349B12046FEF7AF
:1035D00007F928B140206065012184F83510CCE05E
:1035E000206847612046FEF719F894F85C203F21D7
:1035F00002F01F029140816054E0774A90421BD054
:10360000754B1433984217D0734B2833984213D01C
:10361000714B3C3398420FD06F4B503398420BD0D4
:103620006D4B6433984207D06B4B7833984203D08C
:10363000694B8C3398427DD184F8351084F834502E
:10364000664B0168A26801EA030E402A73D0802A03
:1036500072D00022D4E90378D4E9053142EAD702D6
:1036600042EAD8085C4AD4E9077C48EAD30848EA29
:10367000D10141EAD701524241EA1C11142341EA27
:103680000E01016020681044B0FBF3F08000E0659B
:103690002046FDF7C3FF94F85C20012102F01F02D1
:1036A000914041602068B04257D044491831884267
:1036B00053D0484551D050454FD058454DD0424940
:1036C0001831884249D040493031884245D03E497E
:1036D0004831884241D03D4988423ED03B4918316B
:1036E00088423AD039493031884236D0374948315A
:1036F000884232D03549603188422ED03349783102
:1037000088422AD031499031884226D02F49A831A9
:10371000884222D0304988421FD02F491431884234
:103720001BD02D492831884217D02B493C31884283
:1037300013D002E01DE017E018E02749503188421D
:103740000BD025496431884207D02349783188421B
:1037500003D021498C31884229D12046FDF7B8FF9A
:10376000A06880280CD00CE0102273E74FF4804250
:1037700070E74021616584F835800120BDE8F09F45
:103780006560216E20790860D4E9190141606068A4
:10379000401E072808D82046FDF7E8FFE06E0560C8
:1037A000D4E91C01416002E0E566256765670120F8
:1037B000656584F835000020E0E700001000024055
:1037C00040000240580002407000024010040240D5
:1037D0003F8010FE0010005C085402580F00FEFFEE
:1037E0002DE9F84F04008C464FF00000009014D0F3
:1037F00094F83400012812D094F8355001200021AB
:1038000084F83400012D0CD0C002606501200090C6
:1038100084F834100098BDE8F88F0120FBE70220FF
:10382000F9E78C4D0226206884F83560A8428A4D5D
:1038300061658A4E8A4FDFF82C82DFF82C92DFF820
:103840002CA2DFF82CB226D0A84224D0B04222D03D
:10385000B84220D040451ED048451CD050451AD013
:10386000584518D08349884215D08249183188427A
:1038700011D08049303188420DD07E49483188428C
:1038800009D07C496031884205D07A497831884234
:1038900001D078499031016821F001010160614651
:1038A0002046FDF7C7FF6B49206888422CD0A8420C
:1038B0002AD0B04228D0B84226D0404524D048452E
:1038C00022D0504520D058451ED06A4A90421BD085
:1038D000684A1832904217D0664A3032904213D06C
:1038E000644A483290420FD0624A603290420BD014
:1038F000604A7832904207D05E4A9032904203D0BC
:103900005C4AA83290420CD1026822F01E0242F0BA
:1039100016020260206C88B12068026842F008023A
:103920000BE0026822F00E0242F00A020260206CF4
:1039300020B12068026842F00402026020688842D8
:103940004BD0A84249D0B04247D0B84245D04045BC
:1039500043D0484541D050453FD058453DD0454AD9
:1039600090423AD0434A1832904236D0414A3032DF
:10397000904232D03F4A483290422ED03D4A603287
:1039800090422AD03B4A7832904226D0394A90322F
:10399000904222D0374AA83290421ED0364A9042F6
:1039A0001BD0354A1432904217D0334A2832904205
:1039B00013D0314A3C3290420FD02F4A50329042BD
:1039C0000BD02D4A6432904207D02B4A7832904275
:1039D00003D0294A8C3290420DD1206E0268D20366
:1039E00003D5026842F480720260E06E18B102688A
:1039F00042F4807202602068884226D0A84224D017
:103A0000B04222D0B84220D040451ED048451CD0FC
:103A100050451AD0584518D01649884215D0154936
:103A20001831884211D01349303188420DD01149E4
:103A30004831884209D00F496031884205D00D498C
:103A40007831884201D00B499031016841F0010181
:103A50000160DFE610000240280002404000024002
:103A6000580002407000024088000240A00002405E
:103A7000B8000240100402400854025870B50446D1
:103A800000F090FE0546601C02D004480078044413
:103A900000F088FE401BA042FAD370BD2000002435
:103AA00010B590F89830012B09D0022B07D0D0F830
:103AB0009C1041F00201C0F89C10012010BD036869
:103AC0009C6D0C4203D1DC6D44F0010404E09C6D5C
:103AD00031EA04041FD00324DC658B0505D5036897
:103AE000D3F8E0401443C3F8E0404B0505D5036824
:103AF000D3F8E4401443C3F8E4400068084A01EAFC
:103B00000203446D074A1C434465106840EA917003
:103B10001060002010BDDC6D44F00204DCE7000002
:103B2000FFFFCF3F14A8004070B5044690F89800FE
:103B3000022804D0D4F89C0040F008000DE0206872
:103B4000D0F8C03013F07C5F0BD0D0F8C4309B02AB
:103B50000CD5D4F89C0040F40070C4F89C000120FF
:103B600070BDD4F89C0040F02000F6E7D0F8C40007
:103B7000C0F3044520462B46FEF7B0F8216801202B
:103B8000A840C1F8D000C4F89400002070BD704770
:103B900070B590F89820012A09D0022A07D0D0F8F1
:103BA0009C1041F00201C0F89C10012070BD0B6810
:103BB000CA6883B10B69072A43EA427325D00C7A9D
:103BC0004A6942EA84724968006F00EBC100C0E9AB
:103BD0000032002070BD072A0DD00C7AD6060D8A5F
:103BE0004B6943EA847246EA0543C06E49681A434A
:103BF00040F82120EDE70B8A4FF06055D1E906240B
:103C000042EA034245EA0423EFE78A69DBE77047AB
:103C100070470000F0B590F898400025022C04D0C1
:103C2000D0F89C1041F008012BE040294FF00046ED
:103C300005D0412929D0046D8C4219D942E004688D
:103C4000D4F8A07017F4FE0F12D0D4F8A4707F0639
:103C500013D0D4F8A470FF0105D5D4F8A070B6EB4A
:103C6000D77F00D10125D4F8A470466F446C24E0BE
:103C7000D0F89C1041F0200103E0D0F89C1041F4F2
:103C80008071C0F89C100120F0BD0468D4F8B070B9
:103C900017F4FE0FECD0D4F8B4707F06EDD0D4F852
:103CA000B470FF0105D5D4F8B070B6EBD77F00D162
:103CB0000125D4F8B470866FC46CC7F305273D4462
:103CC0006C4302E0446DC66F4C4306EB84042668E7
:103CD00016F080465660266836D026F0604616609C
:103CE000D4F800C000262F4F0CF0005CC2F808C0CA
:103CF000D4F800C00CF0004CC2F810C0B4F804C0F6
:103D00001FFA8CFCC2F81CC0D4F804C00CF4702C50
:103D1000C2F80CC0D4F804C00CF4801CC2F814C063
:103D2000D4F804C00CF4001CC2F818C0D4F804C0C5
:103D3000CCF3066CC2F820C0D4F804C008344FEAB3
:103D4000DC7CC2F824C008E0C6F38A46C7E700BF9F
:103D500014F806C003F806C0761CD2F80CC007EBB6
:103D60001C4C9CF800C0B445F2D840290AD0412927
:103D70000CD020294FF001020CD200688A40C0F814
:103D800098200DE00068C0F8A85009E00068C0F86D
:103D9000B85005E0006801F01F018A40C0F89C207F
:103DA0000020F0BD80EC0008704700002DE9FC5FAA
:103DB000DFF804B3044600680BF104028246DBF826
:103DC0000070D2F80080026D416D036D466DD0F831
:103DD0005090456DD0F850C009F0F00005EA000998
:103DE000DAF85450DAF8500000F0607EB80700EAC4
:103DF00088700090DAF85470DAF8548002F4704059
:103E000003F00F02014001910CF071535FEAC851B9
:103E100006EA020605EA030507EA0E070DD5DAF8F9
:103E20005000C00509D500214FF48073CAF8503006
:103E3000CBF800102046FFF7B7FF2068416D490519
:103E400011D5016D49050ED5D0F8DC20D0F8E4106D
:103E500000234FF48068C0F850801140CBF8003048
:103E6000204600F079FBDFF85482009850B12268B8
:103E7000830F00EA08001065CBF800302046009957
:103E8000FFF785FE019850B12268830F00EA080011
:103E90001065CBF800302046019900F05FFB56B169
:103EA0002268B30F06EA08001065CBF800303146EF
:103EB000204600F077FAB9F1000F0BD022684FEAE4
:103EC000997309EA08001065CBF80030494620468E
:103ED00000F022FB2068416D09050BD5016D090535
:103EE00008D500214FF400630365CBF8001020468D
:103EF00000F035FB2068416D890511D5016D8905FC
:103F00000ED5D0F8D820D0F8E01000234FF4007C74
:103F1000C0F850C01140CBF80030204600F01DFB27
:103F20002068416D09030BD5016D090308D50021F7
:103F30004FF400230365CBF80010204600F030FA60
:103F40002068416DC9030BD5016DC90308D5002157
:103F50004FF480330365CBF80010204600F0FBFAE5
:103F60002068416D49030BD5016D490308D5002137
:103F70004FF480230365CBF80010204600F0EAFAE6
:103F80002068416D89030ED5016D89030BD5002191
:103F90004FF400330365CBF80010D4F89C0040F0D8
:103FA0008000C4F89C0057B12268BB0F07EA0800E4
:103FB0001065CBF8003039462046FFF729FE5DB189
:103FC0002268AB0F05EA08001065CBF80030D4F882
:103FD0009C002843C4F89C0039492068884262D17B
:103FE00060688146806880075DD0D9F82060D9F884
:103FF0002410D9F82080D9F82400D9F82030D9F835
:104000002470D9F82020D9F82450D9F820C002F41F
:10401000FC4206F00F0AD9F82460154008F0300879
:1040200003F4C0730CF4F02C11EA0A0100EA08084A
:1040300007EA030706EA0C0604D0C9F82010204658
:1040400000F085FAB8F1000005D0616808624146C9
:10405000204600F07EFA6068416A49060CD5016A84
:10406000490609D5C16BC26B40230362090C204687
:1040700002F03F0200F06CFA2FB160680762394627
:10408000204600F063FA35B160680562D4F89C0000
:104090002843C4F89C0036B160680662D4F89C00DE
:1040A0003043C4F89C00D4F89C00002802D020467D
:1040B000FFF7ADFDBDE8FC9F10A80040FFFFCF3F1C
:1040C00000A000402DE9F04194B08D494C220446F7
:1040D0006846FCF78EF964B18A4D2068A84202D187
:1040E00000F58070606094F898004FF0000820B1EF
:1040F00008E0012014B0BDE8F081204684F89980E2
:1041000000F002F92068816921F01001816100F05E
:1041100049FB0327064604E000F044FB801B0A2805
:1041200011D8206880690007F6D42068816941F0C1
:104130000101816100F036FB06460DE000F032FB24
:10414000801B0A2808D9D4F89C0040F00100C4F86C
:104150009C0084F89870CCE720688069C007EDD097
:104160002068816941F002018161207C012820687A
:10417000816937D041F040018161607C012820686D
:10418000816932D021F480418161A07C01282068BE
:1041900081692DD041F4805181612068A2688169D4
:1041A00021F44071114381612068816921F0A401EB
:1041B00081612068016921F010010161E068012836
:1041C00019D010B302281BD02068816941F080010A
:1041D00081612068016941F010010161E0680328F4
:1041E0000ED012E021F04001C6E741F48041CBE758
:1041F00021F48051D0E72068816941F0040103E097
:104200002068816941F020018161207E6FF0FF020A
:10421000D4E90773A68A1102400602EB0727A0F132
:104220000070384327685B1E184301EB0646304395
:10423000F861A068B0F5407F11D104F12800A68C88
:104240006FF00F0C89C801EB0641401E02EB032200
:10425000104322680CEB071318430843D060206E0C
:1042600030B12068626ED0F8C0101143C0F8C010A1
:10427000D4E917126846D14209D02168A36E51F8DB
:10428000C82F50F8233022F007021A430A60216C2D
:1042900049B12168626C51F8BC3F50F8226023F0AC
:1042A000070232430A60A16C51B12168E36C51F8F6
:1042B000BC2F50F8233022F0700242EA03120A6049
:1042C000216D51B12168626D51F8BC3F50F8220058
:1042D00023F4E06242EA002008602068A84204D18A
:1042E0006068816821F003018160C4F89480012135
:1042F000C4F89C8084F898102046FDF70BFCF9E682
:1043000090EC000800A0004010B5B6B0044614219F
:104310002FA8FCF787F8BC216846FCF783F81D49F5
:104320002068884233D14FF4004000904103684632
:104330001B9100F065FE08B1FDF78DFB1648016882
:1043400041F480710160006800F48070349012487C
:104350000C38016841F00101016000684FF4C05160
:10436000002200F00100349002200923CDE92F1033
:1043700033932FA9CDE93120084800F0F1F800224D
:104380000521132000F0B0FA132000F09FFA36B098
:1043900010BD000000A00040EC440258000002588C
:1043A000704700002DE9FC410646C8077DD04F4A02
:1043B00040216B463046FFF72DFCBDF80000DFEDD5
:1043C0004C0ABDF80420002540BABDF8021000B226
:1043D000484B00EE100A52BA10B2B8EEC00A49BA01
:1043E00009B220EE200A10EE102A9A4204DC10EEE8
:1043F000102A414B9A4204D9404A12680AB1404AF5
:10440000157000EE901A404C01EE100AF8EEE00A2A
:10441000F2EE042AB8EEC11A208860EEA20A9FEDDF
:10442000392ADFED3A1A616800EB800061EE211A4B
:1044300080EE821A01EB800080ED020A208861681C
:1044400000EB800001EB800080ED031A208861689A
:1044500000EB800001EB8000C0ED041A2088626848
:104460009DF8061000EB800002EB800001712188AE
:1044700062689DF8070001EB810102EB8101487140
:10448000002006F037F921886268214F01EB810195
:1044900042F8210038684FF0FF3108F021F878B970
:1044A0002088616800EB800000E01DE001EB8001E6
:1044B0000E4814222830FBF79CFF386807F0E8FF0D
:1044C0002088401C20802088802808D36068A1684C
:1044D0006160A06025800F48006808F065F8002240
:1044E00030460121FFF7DCFABDE8FC81240D0024F1
:1044F000CDCCCC3D000048430000A0C00C000024FF
:10450000C50000240000FC41480000240AD7233CD9
:10451000180000241C000024704790F8981001290E
:1045200007D0D0F89C1041F00401C0F89C10012085
:104530007047022180F89810002201688B6923F0EF
:1045400001038B61C0F89C2010467047704770478C
:1045500070477047704770477047704770477047A3
:104560002DE9F84F03247D4D00234FF001094FF052
:10457000B04B4FF00F0AE9E009FA03F73A4076D062
:104580000E7906F00306012E01D0022E18D1D0F8C4
:1045900008C04FEA430ECE6804FA0EF82CEA080C65
:1045A00006FA0EF646EA0C068660D0F804C00E79CC
:1045B0002CEA070CC6F300169E4046EA0C0646603D
:1045C0000E79F643B6070BD0C6684FEA43088F68EA
:1045D00004FA08FC26EA0C0607FA08F73743C76016
:1045E0000E7906F00306022E12D1DE080F694FEA9B
:1045F000437C00EB8606B646366A4FEADC6C0AFA64
:104600000CF807FA0CF726EA08063743CEF82070B4
:104610000F7906684FEA430807F0030704FA08FC1D
:1046200007FA08F726EA0C06374307604E6816F4C7
:10463000403F1CD04A4E376847F002073760366863
:104640009F0706F00206009623F0030606F1B04627
:10465000B6463F0FD6F80864DFF808810AFA07FC6F
:10466000404526EA0C0603D14FF0000C41E06CE017
:10467000DFF8F4C0604502D14FF0010C39E0DFF8FB
:10468000ECC0604502D14FF0020C32E0DFF8E0C030
:10469000604502D14FF0030C2BE0DFF8D8C0604535
:1046A00002D14FF0040C24E0DFF8CCC0604502D109
:1046B0004FF0050C1DE0DFF8C4C0604502D14FF09B
:1046C000060C16E0DFF8B8C0604502D14FF0070CC9
:1046D0000FE0DFF8B0C0604502D14FF0080C08E0F1
:1046E000DFF8A4C0604502D14FF0090C01E04FF0A3
:1046F0000A0C0CFA07FC4CEA060CCEF808C44F680A
:10470000DBF80060FF0226EA020600D516435F468A
:10471000CBF80060D1F804C0DBF804605FEA8C2CB1
:1047200026EA020600D516437E606E684F6826EAC8
:104730000206BF0300D516436E602E684F6826EA56
:104740000206FF0300D516432E605B1C0A6832FA8E
:1047500003F67FF411AFBDE8F88F00008000005829
:10476000F44402580000025800040258000802589D
:10477000000C025800100258001402580018025889
:10478000001C025800200258002402580AB181611E
:1047900070470904FBE7000001480068000C7047FF
:1047A0000010005C01488068704700002000002471
:1047B000024881680278114481607047200000241B
:1047C000032010B500F0B0F801F026FA0F4A1049A6
:1047D00014681368C4F3032203F00F038A5CC95CF6
:1047E00002F01F0201F01F01D0400A4A20FA01F135
:1047F000116009490860012000F010F808B101209B
:1048000010BD00F051F8002010BD000018440258FF
:1048100004ED0008300000242C00002410B51028FE
:1048200004468AB02DD2002201461C2000F05CF81C
:104830001C2000F04BF8184804601848016841F04B
:1048400001010160006809A900F0010008906846B4
:1048500001F06EF90598B8B101F0BAF940001049BD
:10486000002240F2E733B0FBF1F10E484FF08044F4
:104870000460C0E90332491EC0E9011202F047FAA0
:1048800028B101200AB010BD01F0A2F9E7E7054800
:1048900002F070FAF6E7000024000024E844025811
:1048A00040420F0050080024074882B0016841F0E0
:1048B00002010160006800220F2100F00200009058
:1048C000901E02B000F010B8F4440258002809DB32
:1048D000410900F01F028900012001F1E021904010
:1048E000C1F80001704700000E4BF0B41B680D4684
:1048F000C3F30223C3F10706042E00D90426191DB1
:10490000072901D2002300E0DB1E012404FA06F18E
:104910009C40491E2940641E994014402143F0BC2C
:1049200004F0D8BE0CED00E0064900F0070210B517
:104930004FF6FF040868044B204040EA0220184369
:10494000086010BD0CED00E00000FA05134970B5D9
:104950000A68D243520705D5096801F00701814270
:1049600013D118E00A6822F0070202430A60FFF739
:1049700019FF0A4D4FF47A760446083D07E000BF60
:10498000FFF710FF001BB04201D9012070BD28685D
:10499000C0438004F4D4002070BD00000C480258CD
:1049A00010B501F0F3F805490968054AC1F3021191
:1049B000515C01F01F01C84010BD000020440258A6
:1049C00004ED00084A4930B5494C0B1D0A680C3407
:1049D00009681D68246802F0030305F00102C1F3B1
:1049E0000511C4F3CC04002914FB02F200EE102AD6
:1049F000F8EE400A76D0414A9FED3E1ADFED3E1AAE
:104A0000B7EE000A23B1012B5AD0022B18D15CE07B
:104A1000374C283C23689B0612D5394B246801EE9D
:104A2000901A1168C4F3C104F8EE612AE34001EE64
:104A3000903AC1F30801F8EE611A81EEA22A07E06C
:104A400002EE101A1168F8EE422A81EEA22A45E021
:104A500001EE901A1168F8EE611A40EE811A71EEBB
:104A6000800A62EE200AC1F3462101EE101AB8EE68
:104A7000411A31EE001AC0EE811ABCEEE11A80ED47
:104A8000001A1168C1F3064101EE101AB8EE411A7E
:104A900031EE001AC0EE811ABCEEE11A80ED011A67
:104AA0001168C1F3066101EE101AB8EE411A31EE39
:104AB000000A80EE801ABCEEC10A80ED020A30BD09
:104AC00001EE901ADFED0F2A03E001EE901ADFED00
:104AD0000E2A1168F8EE611A82EEA12AC1F30801CC
:104AE000B6E7FFE7002101604160816030BD000052
:104AF00028440258000000390024744C3044025805
:104B00000090D0030024744A20BCBE4B494930B504
:104B1000484C0B1D0A68143409681D68246802F0AB
:104B20000303C5F30012C1F30531C4F3CC0400291B
:104B300014FB02F200EE102AF8EE400A75D03F4A4C
:104B40009FED3D1AB7EE000A6BB1DFED3D1A012B68
:104B500001D0022B64D002EE101A1168F8EE422A3E
:104B600081EEA22A21E0334C283C23689B0612D513
:104B7000344B246801EE901A1168C4F3C104F8EEB6
:104B8000612AE34001EE903AC1F30801F8EE611AA0
:104B900081EEA22A0BE001EE901ADFED2B2A00BF76
:104BA000F8EE611A116882EEA12AC1F3080101EE44
:104BB000901A1168F8EE611A40EE811A71EE800ABF
:104BC00062EE200AC1F3462101EE101AB8EE411A36
:104BD00031EE001AC0EE811ABCEEE11A80ED001A27
:104BE0001168C1F3064101EE101AB8EE411A31EE18
:104BF000001AC0EE811ABCEEE11A80ED011A1168AC
:104C0000C1F3066101EE101AB8EE411A31EE000A46
:104C100080EE801ABCEEC10A80ED020A30BD04E0CD
:104C200001EE901ADFED092ABAE700210160416028
:104C30008160F3E7284402580000003938440258E4
:104C40000024744A0090D0030024744C20BCBE4B56
:104C5000494930B5484C0B1D0A681C3409681D6869
:104C6000246802F00303C5F30022C1F30551C4F325
:104C7000CC04002914FB02F200EE102AF8EE400AE0
:104C800075D03F4A9FED3D1AB7EE000A6BB1DFEDDC
:104C90003D1A012B01D0022B64D002EE101A1168CC
:104CA000F8EE422A81EEA22A21E0334C283C236808
:104CB0009B0612D5344B246801EE901A1168C4F398
:104CC000C104F8EE612AE34001EE903AC1F3080115
:104CD000F8EE611A81EEA22A0BE001EE901ADFEDE8
:104CE0002B2A00BFF8EE611A116882EEA12AC1F3E7
:104CF000080101EE901A1168F8EE611A40EE811A6F
:104D000071EE800A62EE200AC1F3462101EE101A0C
:104D1000B8EE411A31EE001AC0EE811ABCEEE11A6B
:104D200080ED001A1168C1F3064101EE101AB8EEC9
:104D3000411A31EE001AC0EE811ABCEEE11A80ED84
:104D4000011A1168C1F3066101EE101AB8EE411A9A
:104D500031EE000A80EE801ABCEEC10A80ED020A34
:104D600030BD04E001EE901ADFED092ABAE7002118
:104D7000016041608160F3E7284402580000003977
:104D8000404402580024744A0090D0030024744C1C
:104D900020BCBE4B2DE9F04F944A4FF48079DFF8E8
:104DA00048824845924B89B0924EA8F10405924939
:104DB0004FF080574FEA22144FF0005C2ED1D8F804
:104DC000000000F00700052824D2DFE800F09BB5C2
:104DD0008425AA0003A8FFF7F5FD049809B0BDE8F3
:104DE000F08F6846FFF792FE0098F7E706A8FFF7F6
:104DF0002FFF0698F2E70868C0F3C10022FA00F01E
:104E0000ECE70A68D2057CD5B8427AD12046E5E7BE
:104E10001846E3E70020E1E73046DFE7B0F5007F22
:104E20001AD0DFF8D891B0F5806F26D0B0F5006FBA
:104E300037D04FF4805A50454FF4804B4FD1D8F8BB
:104E4000000000F4E040B0F5005F44D03DDC0028F5
:104E500058D05045DED16FE0D8F8000000F4E07083
:104E6000802838D004DC00284CD04028D2D163E020
:104E7000C028D1D04845CDD153E0D9F8000000F486
:104E80006000B0F5800F26D004DCD8B3B0F5001F69
:104E9000C0D151E0B0F5C00FBED0B0F5000FB9D110
:104EA0003FE0D9F8000000F0E060B0F1007F12D0E0
:104EB00004DC38B3B0F1807FACD13DE0B0F1407F8D
:104EC000AAD0B0F1806FA5D12BE0B0F5405FA3D0A0
:104ED00058459FD125E0086880009BD586E7B0F54E
:104EE000002F4FF4803612D0B04237D1286810F42A
:104EF000803075D0B0428DD1086800018AD56846EF
:104F000001E025E06CE0FFF701FE029866E7D9F8C2
:104F1000000010F440300FD0B04211D0B0F5003F87
:104F200098D128680D6800F040506D077FF569AF93
:104F300000287FF466AF5EE708680001CDD550E732
:104F400008688000C9D506A8FFF782FE089845E7E3
:104F500009688903C1D5604588D159E758452BD1E7
:104F6000D9F8000000F0E040B0F1405F1CD00CDC4C
:104F700090B1B8422CD060458AD108688000ACD589
:104F800006A8FFF765FE079828E7B0F1804F0FD01D
:104F9000B0F1A04F90D11FE0FFF702FD1EE7684679
:104FA000FFF7B4FD019819E70868400795D522E797
:104FB0000868C00591D529E7B0F5004F89D1D8F828
:104FC000000010F0405007D0B84209D0604592D19F
:104FD00008680001E3D41DE708688003FBD517E7E4
:104FE00008688001F7D5F5E6504402580090D003D8
:104FF00040787D010080BB000044025858440258AC
:105000002DE9FC5F044650F8241B002500902E4635
:105010000801FE4FDFF8F8831DD5606E50B1B0F582
:10502000801F0CD0B0F5001F0ED0B0F5401F1DD072
:1050300001250FE0386840F40030386016E00221A6
:10504000201D02F011FE03E00098022102F09CFEF8
:1050500005000BD02E462088C00523D5606D05289D
:105060001ED2DFE800F00C11161B1B00626ED8F890
:10507000001021F440111143C8F80010EBE7386824
:1050800040F40030386009E00021201D02F0ECFD02
:1050900003E00098002102F077FE05466DB100E0C4
:1050A00001252E462088800528D5A06D80281ED099
:1050B0000CDC90B140280ED114E0626DD8F80010DD
:1050C00021F007011143C8F80010EBE7C02813D006
:1050D000B0F5807F10D001250FE0386840F4003033
:1050E000386009E00021201D02F0BEFD03E00098B9
:1050F000002102F049FE054695B12E462088DFF8D2
:105100001093400509F108092CD5D4F8A400B0F596
:10511000800F20D00DDCA0B1B0F5001F0FD115E03D
:10512000A26DD8F8001021F4E0711143C8F8001006
:10513000E4E7B0F5C00F13D0B0F5000F10D0012593
:105140000FE0386840F40030386009E00021201D8D
:1051500002F08AFD03E00098002102F015FE0546EA
:1051600075B12E46208800052DD5D4F8A800B0F1E1
:10517000007F21D00EDCA8B1B0F1807F10D116E005
:10518000D4F8A420D9F8001021F460011143C9F823
:105190000010E7E7B0F1407F13D0B0F1806F10D07E
:1051A00001250FE0386840F40030386009E0002144
:1051B000201D02F059FD03E00098002102F0E4FDFB
:1051C00005466DB12E46206880011FD5A06CD8B170
:1051D00010280FD0202812D0302815D0012514E037
:1051E000D4F8A820D9F8001021F0E0611143C9F8E3
:1051F0000010E8E7386840F40030386004E002212D
:10520000201D02F031FD05466DB12E462088C004F8
:105210002BD5E06DB0F5005F20D00DDCA0B1B0F56E
:10522000805F0FD115E07A48A26C001F016821F061
:10523000300111430160E9E7B0F5405F13D0B0F5EC
:10524000804F10D001250FE0386840F400303860FE
:1052500009E00021201D02F007FD03E00098002175
:1052600002F092FD054685B12E462088800429D59E
:10527000206EB0F5403F23D010DC08B3B0F5803F7E
:1052800014D0B0F5003F0FD115E0E26DD8F8001052
:1052900021F4E0411143C8F80010E6E7B0F5802F93
:1052A0000ED0B0F5A02F0BD001250AE00121201D62
:1052B00002F0DAFC03E00098012102F065FD0546EA
:1052C0008DB12E46208840042AD5D4F8AC00B0F128
:1052D000405F23D010DC08B3B0F1805F14D0B0F190
:1052E000005F0FD115E0226ED8F8001021F4E02104
:1052F0001143C8F80010E5E7B0F1804F0ED0B0F1CF
:10530000A04F0BD001250AE00121201D02F0ACFCCA
:1053100003E00098012102F037FD05466DB12E46ED
:10532000208800041FD5E06ED8B1B0F1805F0ED0A8
:10533000B0F1005F10D0012514E0D4F8AC20D9F80A
:10534000001021F0E0411143C9F80010E8E7386887
:1053500040F40030386004E00121201D02F084FC9C
:1053600005466DB12E462068C0011ED5606CD0B1D7
:1053700001280ED0022811D0032814D0012513E0F3
:10538000E26ED8F8001021F040511143C8F8001027
:10539000E9E7386840F40030386004E00221201D5D
:1053A00002F062FC054685B12E462068DFF85CB04D
:1053B0004002ABF11C0B57D51648016841F48071CF
:1053C0000160FFF7EFF982460EE01148626C001FA2
:1053D000016821F0030111430160E6E7FFF7E2F9FC
:1053E000A0EB0A0064283DD80A480068C005F5D53E
:1053F0007DBBDFF81CA0B4F8B0200AF1200ADAF86F
:10540000001002F4407001F4407105E02C44025891
:105410005044025800480258814211D0DAF8001076
:10542000DAF8002021F4407142F48032CAF80020FA
:10543000DAF8002022F48032CAF80020CAF80010FE
:10544000D4F8B000B0F5807F21D1FFF7ABF901901F
:1054500019E008E0FFF7A6F90199411A41F28830F6
:10546000814210D903252E462078DFF844A4C007D6
:105470003DD0A06F182838D026DC80B3082829D06A
:10548000102825D12CE0DAF800008007E2D5D4F806
:10549000B010C1F30120032858460DD0016821F453
:1054A0007C510160B4F8B020DAF80010C2F30B02AE
:1054B0001143CAF80010D7E7FE4A036802EA111246
:1054C00023F47C511143ECE720280ED028280CD07F
:1054D00001250BE00121201D02F0C6FB04E004E0E1
:1054E0000098012102F050FC05465DB12E4620785F
:1054F00080071ED5606F062819D2DFE800F0160C71
:1055000011161616A26FDAF8001021F038011143B7
:10551000CAF80010EBE70121201D02F0A5FB03E013
:105520000098012102F030FC054675B100E001252C
:105530002E46207840071FD5D4F89000062819D2AF
:10554000DFE800F0160C11161616626FDAF800107C
:1055500021F007011143CAF80010EAE70121201DDC
:1055600002F082FB03E00098012102F00DFC0546E9
:105570009DB100E001252E46207880062BD5D4F879
:105580008C00B0F1405F24D011DC10B3B0F1805F2B
:1055900015D0B0F1005F10D116E0D4F89020D9F802
:1055A000001021F007011143C9F80010E4E7B0F141
:1055B000804F0ED0B0F1A04F0BD001250AE00021A2
:1055C000201D02F051FB03E00098022102F0DCFBF9
:1055D00005468DB12E46207840062BD5D4F898008C
:1055E000B0F5406F24D011DC10B3B0F5806F15D04A
:1055F000B0F5006F10D116E0D4F88C20DAF8001066
:1056000021F0E0411143CAF80010E4E7B0F5805FF3
:105610000ED0B0F5A05F0BD001250AE00021201DBF
:1056200002F022FB03E00098022102F0ADFB0546E8
:105630008DB12E46207800062BD5D4F89C00B0F50D
:10564000C04F24D011DC10B3B0F5005F15D0B0F519
:10565000804F10D116E0D4F89820D9F8001021F42A
:10566000E0511143C9F80010E4E7B0F5004F0ED047
:10567000B0F5204F0BD001250AE00021201D02F0DB
:10568000F3FA03E00098022102F07EFB05464DB1DB
:105690002E46207800071ED5D4F88000B0F5805F34
:1056A0000AD00FE0D4F89C20D9F8001021F4604112
:1056B0001143C9F80010ECE70098022102F064FBE6
:1056C00000B10126D4F88020DAF8001021F440510E
:1056D0001143CAF800102078C00613D5D4F89400FE
:1056E000B0F5807F05D10098022102F04DFB00B19A
:1056F0000126D4F89420D9F8001021F44071114308
:10570000C9F800102068000316D5D4F8A00038B1FD
:10571000B0F5803F09D0B0F5003F0BD001250AE07D
:105720000021201D02F0A0FA03E00098022102F0FF
:105730002BFB054685B12E462068400322D5D4F8C0
:105740008400B0F5801F11D0B0F5001F13D0B0F564
:10575000401F15D0012514E0D4F8A020D9F800107E
:1057600021F440311143C9F80010E5E7386840F4EE
:105770000030386004E00098012102F005FB054686
:1057800055B12E462068C0031CD5E06C70B1B0F551
:10579000803F10D0012514E0D4F88420DAF80010FE
:1057A00021F440111143CAF80010EBE7386840F4C7
:1057B0000030386004E00221201D02F055FA054651
:1057C000CDB12E462068800005D50098022102F058
:1057D000DBFA00B10126206880031BD5E06FB8B169
:1057E000B0F5807F10D0B0F5007F11D0B0F5407FCC
:1057F0000ED001250DE02E48E26C0838016821F436
:10580000803111430160DDE7386840F400303860D2
:10581000F5B32E462068C00207D5226FD8F80010D5
:1058200021F000411143C8F800102068C00008D5DD
:10583000D4F8B420DBF8001021F480411143CBF8F8
:1058400000102068800207D5A26ED8F8001021F061
:1058500080711143C8F80010206840000CD5DBF8B7
:10586000001021F40041CBF80010DBF80010D4F850
:10587000B8201143CBF800102068002807DA0C4844
:10588000226D0838016821F040511143016000E0A9
:1058900014E02068000208D5D4F88820DAF8001057
:1058A00021F440011143CAF8001086B1012003E041
:1058B00054440258CFFFFF00BDE8FC9FE26FDAF8C6
:1058C000001021F440711143CAF80010A2E7002033
:1058D000EDE700002DE9F05F04000F467ED0DFF811
:1058E0003882D8F8000000F00F00B8420CD2D8F887
:1058F000001021F00F013943C8F80010D8F800005B
:1059000000F00F00B84269D12078844D40070AD5D5
:105910002069296801F07001884204D9296821F0C2
:1059200070010143296020787C4E361D00070AD59E
:105930006069316801F07001884204D9316821F052
:105940007001014331602078C0060AD5A069316832
:1059500001F4E061884204D9316821F4E061014337
:1059600031602078DFF8B4B180060BF1080B0CD55C
:10597000E1695846DBF8002002F07002914204D938
:10598000026822F070020A430260207880070AD57C
:10599000E068296801F00F01884204D9296821F0E4
:1059A0000F01014329602078C0073ED05B49A268FF
:1059B0002868183920F47060104328606068022855
:1059C00018D0032819D00968012819D049070029DF
:1059D0004ADADFF848A1AAF1080A00E044E0DAF860
:1059E000002022F007020243CAF80020FEF7DAFE88
:1059F000814612E009688903E9E709688901E6E759
:105A0000C905E4E7FEF7CEFEA0EB090141F28830BC
:105A1000814202D90320BDE8F09F6168DAF80000F6
:105A200000F03800B0EBC10FECD1207880070AD528
:105A3000E068296801F00F01884204D2296821F04A
:105A40000F0101432960D8F80010404601F00F0112
:105A5000B9420BD9016821F00F0139430160006898
:105A600000F00F00B84201D00120D4E720784007B1
:105A70000AD52069296801F07001884204D229689A
:105A800021F0700101432960207800070AD5606980
:105A9000316801F07001884204D2316821F0700150
:105AA000014331602078C0060AD5A069316801F44D
:105AB000E061884204D2316821F4E0610143316041
:105AC000207880060CD5E1695846DBF8002002F00A
:105AD0007002914204D2026822F070020A4302600E
